:0200000480007A
:100000006F00000B1300000013000000130000003D
:100010001300000013000000130000001300000094
:10002000232E11FE232C51FE232A61FE232871FE6C
:100030002326A1FE2324B1FE2322C1FE2320D1FECC
:10004000232EE1FC232CF1FC232A01FD232811FDA2
:100050002326C1FD2324D1FD2322E1FD2320F1FD30
:10006000130101FCEF10004F8320C10383228103A1
:1000700003234103832301030325C1028325810256
:1000800003264102832601020327C1018327810140
:100090000328410183280101032EC100832E810022
:1000A000032F4100832F010013010104730020304E
:1000B00097210000938101F917A195001301813860
:1000C00017150000130505789795950093858537DA
:1000D0006308B50023200500130545006FF05FFF9E
:1000E00017150000130505761301C1FF97150000D1
:1000F00093854575630EB5008326050013054500FD
:100100002320A100E7800600032501006FF01FFEF9
:1001100013014100371500001305058873104530A1
:10012000372500001305858073100530EF10C02AB5
:040130006F0000005C
:10013400130101FE232E8100130401022326A4FED1
:100144008327C4FE23A007008327C4FE23A407003B
:10015400130000000324C1011301010267800000A1
:10016400130101FE232E8100130401022326A4FEA1
:10017400130000000324C101130101026780000081
:10018400130101FE232E8100130401022326A4FE81
:100194008327C4FE23A207008327C4FE1307F0FFAE
:1001A40023A0E700130000000324C101130101028E
:1001B40067800000130101FE232E81001304010255
:1001C4002326A4FE8327C4FE83A7470093D70701F1
:1001D40093F7F70F138507000324C10113010102EC
:1001E40067800000130101FE232E81001304010225
:1001F4002326A4FE8327C4FE83A7470093D7870141
:10020400138507000324C101130101026780000064
:10021400130101FE232E1100232C8100130401027B
:100224002326A4FE2324B4FE130000000325C4FEE9
:10023400EFF05FF893070500E38A07FE8327C4FE07
:10024400032784FE23A0E700130000008320C101DC
:10025400032481011301010267800000130101FEE0
:10026400232E8100130401022326A4FE2324B4FEBA
:10027400832784FE03A7C7008327C4FE23A4E700C3
:10028400832784FE83A707001387F7FF832784FE51
:1002940083A74700939787003367F700832784FE7B
:1002A40083A78700939707013367F7008327C4FE6A
:1002B40023A6E700130000000324C1011301010277
:1002C40067800000130101FE232E81001304010244
:1002D4002326A4FE8327C4FE83A7070093F72700E1
:1002E400B337F00093F7F70F138507000324C10118
:1002F4001301010267800000130101FE232E810017
:10030400130401022326A4FE8327C4FE130710004E
:1003140023A0E700130000000324C101130101021C
:1003240067800000130101FE232E1100232C81009D
:10033400130401022326A4FE8327C4FE23A007007E
:10034400130000000325C4FEEFF0DFF79307050058
:10035400E39A07FE13000000130000008320C1018C
:10036400032481011301010267800000130101FECF
:10037400232E810013040102F32700C02326F4FE78
:100384008327C4FE138507000324C101130101025E
:1003940067800000130101FE232E1100232C81002D
:1003A400130401022326A4FE6F0000028327C4FE67
:1003B400138717002326E4FE83C7070093850700ED
:1003C400370501F0EFF0DFE48327C4FE83C707009D
:1003D400E39E07FC13000000130000008320C1010A
:1003E400032481011301010267800000130101FC51
:1003F400232E1102232C8102130401042326A4FCBE
:10040400B71700809387475D83A5070003A64700BD
:1004140083A6870003A7C700232CB4FC232EC4FCA7
:100424002320D4FE2322E4FE83C707012304F4FE21
:10043400B71700801385075DEFF0DFF59307C00160
:100444002326F4FE6F0080038327C4FE0327C4FC25
:10045400B357F70093F7F700938707FFB387870035
:1004640083C787FE93850700370501F0EFF05FDA55
:100474008327C4FE9387C7FF2326F4FE8327C4FE85
:10048400E3D407FC13000000130000008320C10321
:10049400032481031301010467800000130101FD9B
:1004A4002326810213040103232EA4FC0727C4FD81
:1004B400B727008087A70782D397E7A06388070040
:1004C400B727008087A747826F00C0080727C4FDAD
:1004D400B727008087A78782D317F7A06386070012
:1004E400D30700F06F000007B727008087A7C782F3
:1004F4002726F4FEB727008087A7C7822724F4FEA7
:10050400930710002322F4FE6F00C003832744FEE8
:10051400D3F707D00727C4FDD377F718072784FE3E
:10052400D377F7102724F4FE0727C4FE872784FE19
:10053400D377F7002726F4FE832744FE938717001A
:100544002322F4FE032744FE93079000E3D0E7FC44
:100554008727C4FE538507E00324C1021301010366
:1005640067800000130101FE232E810013040102A1
:100574002326A4FE2324B4FE0727C4FE872784FE73
:10058400D397E7A0638607008727C4FE6F00800027
:10059400872784FE538507E00324C1011301010268
:1005A40067800000130101FD232611022324810228
:1005B40013040103232EA4FC232CB4FC232AC4FC1F
:1005C400232604FE6F0040068327C4FE939727006A
:1005D4000327C4FDB307F70087A70700D397F720C5
:1005E400538507E0EFF09FEB2324A4FE072784FE46
:1005F400B727008087A7C782D377F7008327C4FE75
:1006040093972700032784FDB307F700372700805B
:100614000727C782D377F71827A0F7008327C4FEDC
:10062400938717002326F4FE0327C4FE832744FD83
:10063400E34CF7F813000000130000008320C1020C
:10064400032481021301010367800000130101FDEB
:100654002326810213040103232EA4FC232CB4FCBF
:10066400232AC4FC2328D4FC232604FE6F00400A5A
:10067400D30700F02724F4FE0327C4FE832704FDD8
:10068400B307F702939727000327C4FDB307F700C6
:100694002320F4FE232204FE6F008004832744FEFB
:1006A40093972700032704FEB307F70007A7070063
:1006B400832744FE93972700032784FDB307F7009D
:1006C40087A70700D377F710072784FED377F700AF
:1006D4002724F4FE832744FE938717002322F4FE85
:1006E400032744FE832704FDE34AF7FA8327C4FE65
:1006F40093972700032744FDB307F700872784FE59
:1007040027A0F7008327C4FE938717002326F4FE4F
:100714000327C4FE832704FDE34CF7F41300000011
:10072400130000000324C1021301010367800000C9
:10073400130101FA232E1104232C8104130401064E
:100744002326A4FA0327C4FA9307070093972700E4
:10075400B387E700138717009307070093971700E1
:10076400B387E7009397870013972700B727008084
:1007740093870744B307F7002326F4FC0327C4FA3E
:100784009307070093972700B387E7001387270091
:100794009307070093971700B387E70093978700A1
:1007A40013972700B727008093870744B307F70000
:1007B4002324F4FC0327C4FA930707009397270024
:1007C400B387E70013873700930707009397170051
:1007D400B387E7009397870013972700B727008014
:1007E40093870744B307F7002322F4FC0327C4FAD2
:1007F4009307070093972700B387E7001387470001
:100804009307070093971700B387E7009397870030
:1008140013972700B727008093870744B307F7008F
:100824002320F4FC232604FE6F00801C8327C4FECF
:10083400939727000327C4FCB307F70087A7070093
:10084400272EF4FAB7270080138707848327C4FE72
:1008540093972700B307F70007A70700B76704803B
:10086400138707C48327C4FE93972700B307F700B1
:1008740087A707005377F710B7670480138707C467
:100884008327C4FE93972700B307F70087A70700C1
:10089400B727008087A6C782D3F6F6088727C4FB4C
:1008A400D3F7F610D377F700B7A79480138707849C
:1008B4008327C4FE93972700B307F70027A0F70008
:1008C400B7270080138707848327C4FE93972700E4
:1008D400B307F70007A70700B777048013870784D7
:1008E4008327C4FE93972700B307F70087A7070061
:1008F4005377F710B7770480138707848327C4FEE0
:1009040093972700B307F70087A70700B72700804E
:1009140087A6C782D3F6F6088727C4FBD3F7F61059
:10092400D377F700B7A79480138707448327C4FEBF
:1009340093972700B307F70027A0F700B727008095
:10094400138707848327C4FE93972700B307F70010
:1009540007A70700B7770480138707448327C4FEDB
:1009640093972700B307F70087A707005377F7107B
:10097400B7770480138707448327C4FE939727001F
:10098400B307F70087A70700B727008087A6C782A9
:10099400D3F6F6088727C4FBD3F7F610D377F7000E
:1009A400B7B79480138707048327C4FE939727005F
:1009B400B307F70027A0F7008327C4FE9397270007
:1009C4000327C4FCB307F700372700809306078486
:1009D4000327C4FE131727003387E6008727070081
:1009E40027A0F7008327C4FE938717002326F4FE6D
:1009F4000327C4FE9307F02FE3DAE7E293060030FF
:100A0400B7C79480138607C4B7B794809385070447
:100A1400B7A74C8013850784EFF05FC3130600303B
:100A2400B7D7948093850784B7C79480138507C488
:100A3400EFF05FB793060030B7D79480138607446E
:100A4400B7A7948093850784B7A704801385078488
:100A5400EFF0DFBF93060030B7E7948013860704F6
:100A6400B7A7948093850744B7A728801385078484
:100A7400EFF0DFBD232404FE6F000007B7D7948096
:100A840013870744832784FE93972700B307F7004F
:100A940087A70700B7F79480138707C4832784FECA
:100AA40093972700B307F70027A0F700B7E79480D0
:100AB40013870704832784FE93972700B307F7005F
:100AC40087A70700B707958013870784832784FEC9
:100AD40093972700B307F70027A0F700832784FE26
:100AE400938717002324F4FE032784FE9307F02F33
:100AF400E3D6E7F8232204FE6F004009832744FE6F
:100B040093972700032784FCB307F70087A7070000
:100B1400B707958013870744832744FE93972700DC
:100B2400B307F70027A0F700832744FE9397270015
:100B3400032744FCB307F70087A70700B71795807E
:100B440013870704832744FE93972700B307F7000E
:100B540027A0F700832744FE93972700032704FC6C
:100B6400B307F70087A70700B7279580138707C443
:100B7400832744FE93972700B307F70027A0F700C5
:100B8400832744FE938717002322F4FE032744FEA1
:100B94009307F02FE3D4E7F6232004FE6F0000252B
:100BA400B787048013870704832704FE93972700DD
:100BB400B307F70007A70700B7F79480138707C4A4
:100BC400832704FE93972700B307F70087A707003E
:100BD400D377F700B737958013870784832704FEFC
:100BE40093972700B307F70027A0F700B72795804E
:100BF400138707C4832704FE93972700B307F700DE
:100C040087A70700B737958013870784832704FED7
:100C140093972700B307F70007A70700D30507E05A
:100C2400538507E0EFF01F94D30705F0B73795809D
:100C340013870744832704FE93972700B307F7001D
:100C440027A0F700B7279580138707C4832704FEDE
:100C540093972700B307F70007A70700B7379580D6
:100C640013870744832704FE93972700B307F700ED
:100C740087A70700D377F708538507E0EFF01F82B3
:100C8400D30705F0B747958013870704832704FE2D
:100C940093972700B307F70027A0F700B73795808D
:100CA40013870784832704FE93972700B307F7006D
:100CB40007A70700B737958013870744832704FEE7
:100CC40093972700B307F70087A70700D377F708A0
:100CD400538507E0EFF08FFCD30705F0B7579580F5
:100CE400138707C4832704FE93972700B307F700ED
:100CF40027A0F700B747958013870704832704FECE
:100D040093972700B307F70007A70700B707958055
:100D140013870744832704FE93972700B307F7003C
:100D240087A707005377F710B7579580138707C431
:100D3400832704FE93972700B307F70087A60700CD
:100D4400B707958013870784832704FE93972700AA
:100D5400B307F70087A70700D3F7F610D377F70098
:100D6400B767958013870784832704FE939727002A
:100D7400B307F70027A0F700B74795801387070448
:100D8400832704FE93972700B307F70007A70700FC
:100D9400B717958013870704832704FE93972700CA
:100DA400B307F70087A707005377F710B757958065
:100DB400138707C4832704FE93972700B307F7001C
:100DC40087A70700D377F700B76795801387074491
:100DD400832704FE93972700B307F70027A0F700A3
:100DE400832704FE938717002320F4FE032704FEC1
:100DF4009307F02FE3D6E7DA232E04FC6F00402795
:100E0400B7279580138707C48327C4FD93972700CA
:100E1400B307F70007A70700B7970480138707C431
:100E24008327C4FD93972700B307F70087A707001C
:100E3400D377F700B7379580138707848327C4FDDA
:100E440093972700B307F70027A0F700B7379580DB
:100E5400138707848327C4FD93972700B307F700FC
:100E640087A70700B7F79480138707C48327C4FDB7
:100E740093972700B307F70007A70700D30507E0F8
:100E8400538507E0EFF00FEED30705F0B7379580F1
:100E9400138707448327C4FD93972700B307F700FC
:100EA40027A0F700B7379580138707848327C4FDED
:100EB40093972700B307F70007A70700B737958074
:100EC400138707448327C4FD93972700B307F700CC
:100ED40087A70700D377F708538507E0EFF00FDC07
:100EE400D30705F0B7479580138707048327C4FD0C
:100EF40093972700B307F70027A0F700B7F794806C
:100F0400138707C48327C4FD93972700B307F7000B
:100F140007A70700B7379580138707448327C4FDC5
:100F240093972700B307F70087A70700D377F7083D
:100F3400538507E0EFF08FD6D30705F0B7579580B8
:100F4400138707C48327C4FD93972700B307F700CB
:100F540027A0F700B7479580138707048327C4FDAC
:100F640093972700B307F70007A70700B7079580F3
:100F7400138707448327C4FD93972700B307F7001B
:100F840087A707005377F710B7579580138707C4CF
:100F94008327C4FD93972700B307F70087A60700AC
:100FA400B7079580138707848327C4FD9397270089
:100FB400B307F70087A70700D3F7F6108327C4FD0C
:100FC40093972700032784FCB307F700D377F70030
:100FD40027A0F700B7479580138707048327C4FD2C
:100FE40093972700B307F70007A70700B717958063
:100FF400138707048327C4FD93972700B307F700DB
:1010040087A707005377F710B7579580138707C44E
:101014008327C4FD93972700B307F70087A707002A
:101024008327C4FD93972700032744FCB307F700E5
:10103400D377F70027A0F7008327C4FD93972700F1
:10104400032704FCB307F70037379580930607445A
:101054000327C4FD131727003387E60087270700FB
:1010640027A0F7008327C4FD93871700232EF4FCE1
:101074000327C4FD9307F02FE3D4E7D8232C04FC03
:101084006F000008B767958013870744832784FDA2
:1010940093972700B307F70087A70700272AF4FCD4
:1010A400872744FD530700F0D3A7E7A06388070010
:1010B400B727008087A70783272AF4FCB7679580A2
:1010C40013870784832784FD93972700B307F700CA
:1010D40007A70700872744FDD377F718B7779580CC
:1010E40013870704832784FD93972700B307F7002A
:1010F40027A0F700832784FD93871700232CF4FC93
:10110400032784FD9307F02FE3DEE7F6232804FC8E
:101114006F00C005B7D7948013870784832704FD25
:1011240093972700B307F70007A70700B7779580C1
:1011340013870704832704FD93972700B307F70059
:1011440087A70700D377F710B7879580138707C45D
:10115400832704FD93972700B307F70027A0F70020
:10116400832704FD938717002328F4FC032704FD39
:101174009307F02FE3D0E7FA93060030B7979580F2
:1011840013860784B7879580938507C4B7A77080B3
:1011940013850784EFF08FCB130000008320C10573
:1011A400032481051301010667800000130101FE79
:1011B400232E1100232C810013040102B717008091
:1011C4001385875EEFF00F9D232604FE6F00400E0B
:1011D4000327C4FE93074006B367F70253F707D00B
:1011E400B727008087A74783D377F710B7270080F6
:1011F400138707848327C4FE93972700B307F70058
:1012040027A0F700B7670480138707C48327C4FEA9
:1012140093972700B307F700372700808727878332
:1012240027A0F700B7770480138707848327C4FEB9
:1012340093972700B307F700372700808727878312
:1012440027A0F700B7770480138707448327C4FED9
:1012540093972700B307F7003727008087278783F2
:1012640027A0F700B7870480138707048327C4FEE9
:1012740093972700B307F700372700808727478312
:1012840027A0F700B7970480138707C48327C4FEF9
:1012940093972700B307F700372700808727C78372
:1012A40027A0F7008327C4FE938717002326F4FEA4
:1012B4000327C4FE9307F02FE3DCE7F0B7170080A1
:1012C40013858760EFF00F8D232404FE6F0000095F
:1012D400B7A7048013870784832784FE9397270086
:1012E400B307F700372700808727C78327A0F700B5
:1012F400B7A7288013870784832784FE9397270042
:10130400B307F700372700808727C78327A0F70094
:10131400B7A74C8013870784832784FE93972700FD
:10132400B307F700372700808727C78327A0F70074
:10133400B7A7708013870784832784FE93972700B9
:10134400B307F700372700808727C78327A0F70054
:10135400832784FE938717002324F4FE032784FE47
:10136400B7070900E346F7F6B71700801385C7628D
:10137400EFF04F82232204FE6F00C002B7270080E3
:1013840013870744832744FE93972700B307F70086
:10139400D30700F027A0F700832744FE93871700A4
:1013A4002322F4FE032744FEB71701009387F7DFD7
:1013B400E3D6E7FCB717008013854764EFE09FFD91
:1013C400130000008320C1010324810113010102E1
:1013D40067800000130101FD2326110223248102EA
:1013E4001304010393078000232AF4FC232C04FC38
:1013F400232E04FC930750032320F4FE930744FD9B
:1014040093850700370501F0EFE05FE5B71700802B
:1014140013850766EFE01FF8B7170080138547664A
:10142400EFE05FF7B717008013850769EFE09FF6D9
:10143400B717008013854766EFE0DFF5B717008024
:101444001385876BEFE01FF5B71700801385876C52
:10145400EFE05FF4B71700801385876EEFE09FF32A
:10146400B717008013850771EFE0DFF2B71700802C
:1014740013854773EFE01FF2B717008013850776D3
:10148400EFE05FF1EFF09FD2B71700801385477844
:10149400EFE05FF0B71700801385C778EFE09FEFA8
:1014A400EFE0DFEC2326A4FE13050000EFF04FA8C5
:1014B400EFE0DFEB2324A4FE032784FE8327C4FE8E
:1014C400B307F7402322F4FEB7170080138547784B
:1014D400EFE05FECB717008013854766EFE09FEB02
:1014E400B71700801385077BEFE0DFEAB7170080AA
:1014F4001385C77BEFE01FEAB7979580938707842E
:1015040083A7070013850700EFE05FEEB71700809D
:101514001385C77CEFE01FE8B79795809387C7438F
:1015240083A7070013850700EFE05FECB71700807F
:101534001385077EEFE01FE6032544FEEFE01FEB73
:10154400B71700801385477FEFE0DFE46F000000EA
:10155400130101FF2326810013040101130000007D
:0C1564000324C100130101016780000096
:10157000600000002003000070000000F002000086
:10158000020000000D0200000C000000EC01000051
:1015900008000000460000001000000040000000AD
:1015A00002000000300000000800000028000000D9
:1015B00008000000B800000010000000B0000000AB
:1015C0000200000082000000060000007E00000013
:1015D00030780000303132333435363738394142D3
:1015E0004344454600000000496E697469616C69B6
:1015F0007A696E6720782C2074696D655F6D6978F3
:101600002E2E2E0A00000000496E697469616C6913
:101610007A696E6720776569676874206D61747296
:10162000696365732E2E2E0A00000000496E6974EE
:1016300069616C697A696E672073746174652E2EB6
:101640002E0A0000496E697469616C697A61746977
:101650006F6E20636F6D706C657465210A00000009
:101660000A0A00003D3D3D3D3D3D3D3D3D3D3D3D8A
:101670003D3D3D3D3D3D3D3D3D3D3D3D3D3D3D3D9A
:101680003D3D3D3D3D3D3D3D3D3D3D3D0A00000074
:10169000202053412042656E63686D61726B202D7E
:1016A0002044494D3D3736382C204D454D5F534938
:1016B0005A453D31380A00004D656D6F7279204CF6
:1016C00061796F75743A0A002020436F64653A208F
:1016D0002020534452414D2028307834303030306F
:1016E000303030290A000000202041727261797385
:1016F0003A20534452414D20283078343030303035
:10170000303030202B206F6666736574290A000024
:101710002020537461636B3A20204F6E2D636869FB
:10172000702052414D202830783830303030303001
:1017300030290A003D3D3D3D3D3D3D3D3D3D3D3D6A
:101740003D3D3D3D3D3D3D3D3D3D3D3D3D3D3D3DC9
:101750003D3D3D3D3D3D3D3D3D3D3D3D0A0A000099
:10176000506861736520313A20496E697469616C13
:10177000697A696E67206172726179732E2E2E0A02
:1017800000000000446F6E65210A0A005068617312
:101790006520323A2052756E6E696E672053412083
:1017A000286C617965722030292E2E2E0A000000E7
:1017B000526573756C74733A0A00000020204F75EF
:1017C000747075745B305D3A202020000A20204F31
:1017D00075747075745B3736375D3A200000000011
:1017E0000A20204379636C65733A20202020202052
:1017F000000000000A3D3D3D3D3D3D3D3D3D3D3D40
:101800003D3D3D3D3D3D3D3D3D3D3D3D3D3D3D3D08
:101810003D3D3D3D3D3D3D3D3D3D3D3D3D0A0A009B
:10182000000020410000B042000020C10000803FC5
:101830005F708930CDCCCC3D0000003F0AD7233CFF
:040000058000000077
:00000001FF
