:0200000480007A
:100000006F00000B1300000013000000130000003D
:100010001300000013000000130000001300000094
:10002000232E11FE232C51FE232A61FE232871FE6C
:100030002326A1FE2324B1FE2322C1FE2320D1FECC
:10004000232EE1FC232CF1FC232A01FD232811FDA2
:100050002326C1FD2324D1FD2322E1FD2320F1FD30
:10006000130101FCEF10403E8320C1038322810372
:1000700003234103832301030325C1028325810256
:1000800003264102832601020327C1018327810140
:100090000328410183280101032EC100832E810022
:1000A000032F4100832F010013010104730020304E
:1000B00097210000938101D7179195001301813694
:1000C000171500001305055697959500938585151E
:1000D0006308B50023200500130545006FF05FFF9E
:1000E00017150000130505541301C1FF97150000F3
:1000F00093854553630EB50083260500130545001F
:100100002320A100E7800600032501006FF01FFEF9
:1001100013014100371500001305058873104530A1
:10012000372500001305858073100530EF1040203F
:040130006F0000005C
:10013400130101FE232E8100130401022326A4FED1
:100144008327C4FE23A007008327C4FE23A407003B
:10015400130000000324C1011301010267800000A1
:10016400130101FE232E8100130401022326A4FEA1
:10017400130000000324C101130101026780000081
:10018400130101FE232E8100130401022326A4FE81
:100194008327C4FE23A207008327C4FE1307F0FFAE
:1001A40023A0E700130000000324C101130101028E
:1001B40067800000130101FE232E81001304010255
:1001C4002326A4FE8327C4FE83A7470093D70701F1
:1001D40093F7F70F138507000324C10113010102EC
:1001E40067800000130101FE232E81001304010225
:1001F4002326A4FE8327C4FE83A7470093D7870141
:10020400138507000324C101130101026780000064
:10021400130101FE232E1100232C8100130401027B
:100224002326A4FE2324B4FE130000000325C4FEE9
:10023400EFF05FF893070500E38A07FE8327C4FE07
:10024400032784FE23A0E700130000008320C101DC
:10025400032481011301010267800000130101FEE0
:10026400232E8100130401022326A4FE2324B4FEBA
:10027400832784FE03A7C7008327C4FE23A4E700C3
:10028400832784FE83A707001387F7FF832784FE51
:1002940083A74700939787003367F700832784FE7B
:1002A40083A78700939707013367F7008327C4FE6A
:1002B40023A6E700130000000324C1011301010277
:1002C40067800000130101FE232E81001304010244
:1002D400F32700C02326F4FE8327C4FE13850700FA
:1002E4000324C1011301010267800000130101FE10
:1002F400232E1100232C8100130401022326A4FEC3
:100304006F0000028327C4FE138717002326E4FE30
:1003140083C7070093850700370501F0EFF05FEF0F
:100324008327C4FE83C70700E39E07FC1300000075
:10033400130000008320C101032481011301010281
:1003440067800000130101FC232E1102232C81027B
:10035400130401042326A4FCB7170080938787465F
:1003640083A5070003A6470083A6870003A7C70049
:10037400232CB4FC232EC4FC2320D4FE2322E4FE2D
:1003840083C707012304F4FEB7170080138547468B
:10039400EFF0DFF59307C0012326F4FE6F0080031E
:1003A4008327C4FE0327C4FCB357F70093F7F70071
:1003B400938707FFB387870083C787FE938507006A
:1003C400370501F0EFF0DFE48327C4FE9387C7FF0E
:1003D4002326F4FE8327C4FEE3D407FC13000000A5
:1003E400130000008320C1030324810313010104CB
:1003F40067800000130101FD232681021304010319
:10040400232EA4FC0727C4FDB717008087A7076025
:10041400D397E7A063880700B717008087A74760D2
:100424006F00C0080727C4FDB717008087A787603F
:10043400D317F7A063860700D30700F06F00000707
:10044400B717008087A7C7602726F4FEB717008078
:1004540087A7C7602724F4FE930710002322F4FE25
:100464006F00C003832744FED3F707D00727C4FDDA
:10047400D377F718072784FED377F7102724F4FEE1
:100484000727C4FE872784FED377F7002726F4FEC8
:10049400832744FE938717002322F4FE032744FE98
:1004A40093079000E3D0E7FC8727C4FE538507E059
:1004B4000324C1021301010367800000130101FE3C
:1004C400232E8100130401022326A4FE2324B4FE58
:1004D4000727C4FE872784FED397E7A06386070017
:1004E4008727C4FE6F008000872784FE538507E0BA
:1004F4000324C1011301010267800000130101FDFF
:10050400232611022324810213040103232EA4FCB5
:10051400232CB4FC232AC4FC232604FE6F004006CB
:100524008327C4FE939727000327C4FDB307F7006E
:1005340087A70700D397F720538507E0EFF09FEBD9
:100544002324A4FE072784FEB717008087A7C7606B
:10055400D377F7008327C4FE93972700032784FDEE
:10056400B307F700371700800727C760D377F7185A
:1005740027A0F7008327C4FE938717002326F4FEE1
:100584000327C4FE832744FDE34CF7F8130000005F
:10059400130000008320C10203248102130101031C
:1005A40067800000130101FD232681021304010367
:1005B400232EA4FC232CB4FC232AC4FC2328D4FC1F
:1005C400232604FE6F00400AD30700F02724F4FE1C
:1005D4000327C4FE832704FDB307F702939727007C
:1005E4000327C4FDB307F7002320F4FE232204FEEF
:1005F4006F008004832744FE93972700032704FE9B
:10060400B307F70007A70700832744FE9397270043
:10061400032784FDB307F70087A70700D377F710F4
:10062400072784FED377F7002724F4FE832744FEAC
:10063400938717002322F4FE032744FE832704FD37
:10064400E34AF7FA8327C4FE93972700032744FD60
:10065400B307F700872784FE27A0F7008327C4FE8B
:10066400938717002326F4FE0327C4FE832704FD83
:10067400E34CF7F413000000130000000324C1024C
:100684001301010367800000130101FA232E1104F2
:10069400232C8104130401062326A4FA0327C4FA95
:1006A4009307070093972700B387E7001387170082
:1006B4009307070093971700B387E7009397870082
:1006C40013972700B727008093870722B307F70003
:1006D4002326F4FC0327C4FA930707009397270003
:1006E400B387E70013872700930707009397170042
:1006F400B387E7009397870013972700B7270080F5
:1007040093870722B307F7002324F4FC0327C4FAD2
:100714009307070093972700B387E70013873700F1
:100724009307070093971700B387E7009397870011
:1007340013972700B727008093870722B307F70092
:100744002322F4FC0327C4FA930707009397270096
:10075400B387E700138747009307070093971700B1
:10076400B387E7009397870013972700B727008084
:1007740093870722B307F7002320F4FC232604FE03
:100784006F00801C8327C4FE939727000327C4FCB3
:10079400B307F70087A70700272EF4FAB7170080DE
:1007A400138707628327C4FE93972700B307F700D4
:1007B40007A70700B7670480138707A28327C4FE2F
:1007C40093972700B307F70087A707005377F7101D
:1007D400B7670480138707A28327C4FE9397270073
:1007E400B307F70087A70700B717008087A6C7607D
:1007F400D3F6F6088727C4FBD3F7F610D377F700B0
:10080400B7979480138707628327C4FE93972700C2
:10081400B307F70027A0F700B71700801387076214
:100824008327C4FE93972700B307F70007A70700A1
:10083400B7670480138707628327C4FE9397270052
:10084400B307F70087A707005377F710B76704804B
:10085400138707628327C4FE93972700B307F70023
:1008640087A70700B717008087A6C760D3F6F608E6
:100874008727C4FBD3F7F610D377F700B7A7948084
:10088400138707228327C4FE93972700B307F70033
:1008940027A0F700B7170080138707628327C4FED9
:1008A40093972700B307F70007A70700B7770480DB
:1008B400138707228327C4FE93972700B307F70003
:1008C40087A707005377F710B777048013870722A9
:1008D4008327C4FE93972700B307F70087A7070071
:1008E400B717008087A6C760D3F6F6088727C4FB2E
:1008F400D3F7F610D377F700B7B79480138707E2DE
:100904008327C4FE93972700B307F70027A0F700B7
:100914008327C4FE939727000327C4FCB307F7007B
:1009240037170080930607620327C4FE13172700B6
:100934003387E6008727070027A0F7008327C4FE34
:10094400938717002326F4FE0327C4FE9307F02F92
:10095400E3DAE7E293060030B7C79480138607A270
:10096400B7B79480938507E2B7974C8013850762E5
:10097400EFF05FC313060030B7C794809385076216
:10098400B7C79480138507A2EFF05FB793060030D2
:10099400B7D7948013860722B7979480938507620C
:1009A400B797048013850762EFF0DFBF930600302A
:1009B400B7E79480138607E2B7A79480938507224C
:1009C400B797288013850762EFF0DFBD232404FE68
:1009D4006F000007B7D7948013870722832784FE0C
:1009E40093972700B307F70087A70700B7F794800A
:1009F400138707A2832784FE93972700B307F70082
:100A040027A0F700B7E79480138707E2832784FEC3
:100A140093972700B307F70087A70700B7F79480D9
:100A240013870762832784FE93972700B307F70091
:100A340027A0F700832784FE938717002324F4FE5E
:100A4400032784FE9307F02FE3D6E7F8232204FE5E
:100A54006F004009832744FE93972700032784FCF3
:100A6400B307F70087A70700B70795801387072206
:100A7400832744FE93972700B307F70027A0F700C6
:100A8400832744FE93972700032744FCB307F7000A
:100A940087A70700B7179580138707E2832744FECB
:100AA40093972700B307F70027A0F700832744FE96
:100AB40093972700032704FCB307F70087A70700D1
:100AC400B7279580138707A2832744FE93972700AF
:100AD400B307F70027A0F700832744FE9387170086
:100AE4002322F4FE032744FE9307F02FE3D4E7F612
:100AF400232004FE6F000025B7870480138707E2D4
:100B0400832704FE93972700B307F70007A707007E
:100B1400B7F79480138707A2832704FE93972700CF
:100B2400B307F70087A70700D377F700B7279580A7
:100B340013870762832704FE93972700B307F70000
:100B440027A0F700B7279580138707A2832704FE01
:100B540093972700B307F70087A70700B727958067
:100B640013870762832704FE93972700B307F700D0
:100B740007A70700D30507E0538507E0EFF01F94AC
:100B8400D30705F0B737958013870722832704FE20
:100B940093972700B307F70027A0F700B72795809E
:100BA400138707A2832704FE93972700B307F70050
:100BB40007A70700B737958013870722832704FE0A
:100BC40093972700B307F70087A70700D377F708A1
:100BD400538507E0EFF01F82D30705F0B7479580F0
:100BE400138707E2832704FE93972700B307F700D0
:100BF40027A0F700B727958013870762832704FE91
:100C040093972700B307F70007A70700B737958026
:100C140013870722832704FE93972700B307F7005F
:100C240087A70700D377F708538507E0EFF08FFC19
:100C3400D30705F0B7579580138707A2832704FECF
:100C440093972700B307F70027A0F700B7479580CD
:100C5400138707E2832704FE93972700B307F7005F
:100C640007A70700B707958013870722832704FE89
:100C740093972700B307F70087A707005377F71068
:100C8400B7579580138707A2832704FE93972700FD
:100C9400B307F70087A60700B7F7948013870762A6
:100CA400832704FE93972700B307F70087A707005D
:100CB400D3F7F610D377F700B757958013870762F9
:100CC400832704FE93972700B307F70027A0F700B4
:100CD400B7479580138707E2832704FE939727007D
:100CE400B307F70007A70700B7179580138707E234
:100CF400832704FE93972700B307F70087A707000D
:100D04005377F710B7579580138707A2832704FEFC
:100D140093972700B307F70087A70700D377F70057
:100D2400B767958013870722832704FE93972700CC
:100D3400B307F70027A0F700832704FE9387170063
:100D44002320F4FE032704FE9307F02FE3D6E7DA0B
:100D5400232E04FC6F004027B7279580138707A232
:100D64008327C4FD93972700B307F70007A707005D
:100D7400B7970480138707A28327C4FD939727009E
:100D8400B307F70087A70700D377F700B727958045
:100D9400138707628327C4FD93972700B307F700DF
:100DA40027A0F700B7279580138707628327C4FD20
:100DB40093972700B307F70087A70700B7F7948036
:100DC400138707A28327C4FD93972700B307F7006F
:100DD40007A70700D30507E0538507E0EFF00FEE00
:100DE400D30705F0B7379580138707228327C4FDFF
:100DF40093972700B307F70027A0F700B72795803C
:100E0400138707628327C4FD93972700B307F7006E
:100E140007A70700B7379580138707228327C4FDE8
:100E240093972700B307F70087A70700D377F7083E
:100E3400538507E0EFF00FDCD30705F0B747958043
:100E4400138707E28327C4FD93972700B307F700AE
:100E540027A0F700B7F79480138707A28327C4FD60
:100E640093972700B307F70007A70700B7379580C4
:100E7400138707228327C4FD93972700B307F7003E
:100E840087A70700D377F708538507E0EFF08FD6DD
:100E9400D30705F0B7579580138707A28327C4FDAE
:100EA40093972700B307F70027A0F700B74795806B
:100EB400138707E28327C4FD93972700B307F7003E
:100EC40007A70700B7079580138707228327C4FD68
:100ED40093972700B307F70087A707005377F71006
:100EE400B7579580138707A28327C4FD93972700DC
:100EF400B307F70087A60700B7F794801387076244
:100F04008327C4FD93972700B307F70087A707003B
:100F1400D3F7F6108327C4FD93972700032784FC97
:100F2400B307F700D377F70027A0F700B7479580FA
:100F3400138707E28327C4FD93972700B307F700BD
:100F440007A70700B7179580138707E28327C4FD17
:100F540093972700B307F70087A707005377F71085
:100F6400B7579580138707A28327C4FD939727005B
:100F7400B307F70087A707008327C4FD93972700CB
:100F8400032744FCB307F700D377F70027A0F70043
:100F94008327C4FD93972700032704FCB307F700B6
:100FA40037379580930607220327C4FD13172700BC
:100FB4003387E6008727070027A0F7008327C4FDAF
:100FC40093871700232EF4FC0327C4FD9307F02F07
:100FD400E3D4E7D8232C04FC6F000008B76795809E
:100FE40013870722832784FD93972700B307F7000D
:100FF40087A70700272AF4FC872744FD530700F03E
:10100400D3A7E7A063880700B717008087A7076105
:10101400272AF4FCB757958013870762832784FD3A
:1010240093972700B307F70007A70700872744FD16
:10103400D377F718B7779580138707E2832784FD62
:1010440093972700B307F70027A0F700832784FDB1
:1010540093871700232CF4FC032784FD9307F02FB8
:10106400E3DEE7F6232804FC6F00C005B7C79480CD
:1010740013870762832704FD93972700B307F700BC
:1010840007A70700B7779580138707E2832704FD36
:1010940093972700B307F70087A70700D377F710C4
:1010A400B7879580138707A2832704FD93972700AA
:1010B400B307F70027A0F700832704FD93871700E1
:1010C4002328F4FC032704FD9307F02FE3D0E7FA69
:1010D40093060030B787958013860762B78795809B
:1010E400938507A2B797708013850762EFF08FCBC3
:1010F400130000008320C1050324810513010106A8
:1011040067800000130101FE232E1100232C8100AF
:1011140013040102B71700801385C747EFF00F9D32
:10112400232604FE6F00400E0327C4FE93074006E7
:10113400B367F70253F707D0B717008087A7476153
:10114400D377F710B7170080138707628327C4FE8D
:1011540093972700B307F70027A0F700B767048029
:10116400138707A28327C4FE93972700B307F700CA
:10117400371700808727876127A0F700B7670480A7
:10118400138707628327C4FE93972700B307F700EA
:10119400371700808727876127A0F700B777048077
:1011A400138707228327C4FE93972700B307F7000A
:1011B400371700808727876127A0F700B787048047
:1011C400138707E28327C4FE93972700B307F7002A
:1011D400371700808727476127A0F700B797048057
:1011E400138707A28327C4FE93972700B307F7004A
:1011F400371700808727C76127A0F7008327C4FE1D
:10120400938717002326F4FE0327C4FE9307F02FC9
:10121400E3DCE7F0B717008013854749EFF00F8D43
:10122400232404FE6F000009B79704801387076224
:10123400832784FE93972700B307F70037170080AE
:101244008727C76127A0F700B7972880138707620D
:10125400832784FE93972700B307F700371700808E
:101264008727C76127A0F700B7974C8013870762C9
:10127400832784FE93972700B307F700371700806E
:101284008727C76127A0F700B79770801387076285
:10129400832784FE93972700B307F700371700804E
:1012A4008727C76127A0F700832784FE9387170049
:1012B4002324F4FE032784FEB7070900E346F7F668
:1012C400B71700801385874AEFF04F82232204FE6C
:1012D4006F00C002B727008013870722832744FECC
:1012E40093972700B307F700D30700F027A0F70070
:1012F400832744FE938717002322F4FE032744FE2A
:10130400B71701009387F7DFE3D6E7FCB717008030
:101314001385874BEFE09FFD130000008320C1017C
:10132400032481011301010267800000130101FEFF
:10133400232E1100232C810013040102B70700F0AF
:101344001307F00F23A4E700B70700F013071000FA
:1013540023A2E700B71700801385074CEFE01FF9BD
:10136400B71700801385C74EEFE05FF8B71700800A
:1013740013858750EFE09FF7B71700801385475315
:10138400EFE0DFF6EFF01FD8B7170080138587541E
:10139400EFE0DFF5EFE01FF32326A4FE13050000C2
:1013A400EFF08FAEEFE01FF22324A4FE032784FEA8
:1013B4008327C4FEB307F7402322F4FEB717008047
:1013C40013854756EFE09FF2B7170080138507593E
:1013D400EFE0DFF1B71700801385C759EFE01FF185
:1013E400B78795809387076283A707001385070053
:1013F400EFE05FF5B71700801385C75AEFE01FEFE2
:10140400B79795809387C72183A7070013850700A3
:10141400EFE05FF3B71700801385075CEFE01FED83
:10142400032544FEEFE01FF2B71700801385475DE4
:10143400EFE0DFEBB70700F01307F00F23A2E7009C
:101444006F000000130101FF232681001304010132
:10145400130000000324C100130101016780000090
:101464003078000030313233343536373839414240
:101474004344454600000000496E697420782C20DE
:1014840074696D655F6D69782E2E2E0A0000000068
:10149400496E697420776569676874732E2E2E0A05
:1014A40000000000496E69742073746174652E2E07
:1014B4002E0A0000446F6E65210A00000A0A3D3DB1
:1014C4003D3D3D3D3D3D3D3D3D3D3D3D3D3D3D3D48
:1014D4003D3D3D3D3D3D3D3D3D3D3D3D3D3D3D3D38
:1014E4003D3D3D3D3D3D0A00202053412042656E77
:1014F40063686D61726B202D2044494D3D37363849
:101504000A0000003D3D3D3D3D3D3D3D3D3D3D3DF1
:101514003D3D3D3D3D3D3D3D3D3D3D3D3D3D3D3DF7
:101524003D3D3D3D3D3D3D3D3D3D3D3D0A0A0000C7
:10153400506861736520313A20496E69742E2E2EED
:101544000A0000000A506861736520323A2052751F
:101554006E6E696E672053412E2E2E0A0000000025
:101564000A3D3D3D3D3D3D3D3D3D3D3D3D3D3D3DDA
:101574003D3D3D3D3D3D3D3D3D3D3D3D3D3D3D3D97
:101584003D3D3D3D3D3D3D3D3D0A00005265737589
:101594006C74733A0A00000020204F7574707574DF
:1015A4005B305D3A202020000A20204F757470754E
:1015B400745B3736375D3A20000000000A20204370
:1015C40079636C65733A20202020202000000000FD
:1015D4000A3D3D3D3D3D3D3D3D3D3D3D3D3D3D3D6A
:1015E4003D3D3D3D3D3D3D3D3D3D3D3D3D3D3D3D27
:1015F4003D3D3D3D3D3D3D3D3D0A0A00000020414D
:101604000000B042000020C10000803F5F708930BC
:0C161400CDCCCC3D0000003F0AD7233CA9
:040000058000000077
:00000001FF
